:020000040000FA
:06000000B3EF04F0120052
:0600080004ED10F01200EF
:060018000CEF10F01200D5
:02002A000000D4
:04002C0018EF00F0D9
:100030006D6A696A0001A56B12006D966F886F8406
:10004000160E706E1E0E716E0FD86D860001010EB9
:10005000A56F120068966896689668966E6A0001A9
:10006000A76BA56B34EF00F00401800E006F400E0B
:10007000016F000E026F050E036F046B400E056FDB
:10008000400E066F050E076F800E086F400E096F59
:10009000800E0A6F050E0B6F400E0C6F0D6FC00EB9
:1000A0000E6F050E0F6F1200685001E133D06850DB
:1000B000400B04E06950400B01E0689C6850100B55
:1000C00004E06950100B01E068986850040B04E0EC
:1000D0006950040B01E068946850020B04E0695019
:1000E000020B01E068926850200B04E06950200B7D
:1000F00001E0689A6850010B04E06950010B01E0CF
:1001000068906850080B04E06950080B01E068969D
:100110006A5000E0120068BC689C68B8689868B4CF
:10012000689468B2689268BA689A68A002D092DF50
:10013000689068A602D005D868966A5000E027EF5C
:1001400003F06C500DE1040100513C0BE842E84221
:100150000D0803E16D981FD801D007D84CD904D001
:10016000040E6C5C01E102D812001200040105517A
:100170000AE10001A7A105D0A791A6C06EFF050E58
:10018000A56FA79707D00001A751080B03E0AF5157
:1001900001E0ECD812007F0E0501001502E10FD836
:1001A0000DD07F0E0015010802E138D807D07F0E70
:1001B0000015210802E13BD801D00DD9120005013C
:1001C0000151010A28E0020A26E0090A24E0010A96
:1001D00022E0070A20E00C0A1EE0070A1CE00F0AD2
:1001E0001AE0010A10E00F0A0CE0030A01E013D044
:1001F00002C5A6F00001A781F0D80001040EA56F8A
:100200000CD036D80AD002C5A8F0E7D80001060EF7
:10021000A56FA78502D0DFD800D0120005010151DB
:10022000060A02E0D8D802D05CD800D0120005013E
:100230000151010A06E00B0A02E0CDD804D0CDD866
:1002400002D002D800D012000501035107E0010AD4
:1002500005E0030A03E0010A01E000D00401020EF8
:10026000056F0501010E406F020E416F00D01200B4
:1002700005010351040A32E0010A30E0030A2EE0CE
:10028000010A2CE0040A28E0210A1BE0200A0EE003
:10029000030A01E023D00001120EAF6F790EA96F9F
:1002A000070EAA6F000EAB6F5AD81AD00001290EA4
:1002B000AF6F8B0EA96F070EAA6F000EAB6F4FD8F2
:1002C0000FD000011D0EAF6F5C0EA96F070EAA6F55
:1002D000000EAB6F44D804D016D802D07CD800D022
:1002E000120005010351220A02E075D80BD000016B
:1002F0001D0EAF6F5C0EA96F070EAA6F000EAB6FDD
:100300002ED800D0120005010251020A1CE0030A97
:100310000FE0010A02E05FD821D00001B40EA96FFE
:10032000070EAA6F000EAB6F040EAF6F18D816D071
:100330000001B80EA96F070EAA6F000EAB6F340E46
:10034000AF6F0DD80BD00001EC0EA96F070EAA6F8E
:10035000000EAB6F2E0EAF6F02D800D0120000015E
:10036000A7870401080E046FB6EF01F005010651DE
:100370000001D880AF5502E206C5AFF0AFC0B0F0C3
:10038000B051400802E2400EB06FB051AF5FB0C054
:1003900005F4400EAC6F050EAD6FB051B00700090B
:1003A00018E0A9C0F6FFA92BAAC0F7FF000EAA23E8
:1003B000ABC0F8FFAB230800F550E66EACC0E9FF18
:1003C000ADC0EAFFAC2B000EAD23E552E750EF6E57
:1003D000E4D7F3EF01F0708012000401056B080E02
:1003E000046FF3EF01F0400E04010415400A800988
:1003F0000809046F12006D980401400E016F800E11
:04040000006F120077
:0C04040012000001A7AD3AD00001A06B6F
:10041000600EE66E000EE66E4EEC03F0E552E5521D
:1004200000016051FF0A1FE0890A1BE0730A17E010
:10043000010A13E0070A0FE0010A0BE0040A07E0D3
:10044000070A05E0060A01E012D0CFD811D054D82F
:100450000FD076D80DD0A7D80BD01BD809D02ED866
:1004600007D00FD805D016EC00F0FF0001D000D067
:10047000600EE66E000EE66E7EEC03F0E552E5528D
:1004800012000001420E656F010E666F030E676F6A
:100490001200A66A0001A06B6151A05D0EE26251DC
:1004A000A025A96EA680A051EA6A650FE96E000E2C
:1004B000EA22A8CFEFFFA02BEFD71200A66A000117
:1004C000A06B6151A05D17E2A66A6251A025A96EDA
:1004D000A051EA6A650FE96E000EEA22EF50A86E9D
:1004E000A684550EA76EAA0EA76EA682A6B2FED748
:1004F0000001A02BE6D71200A66A0001A06B62C023
:10050000A2F063C0A3F064C0A4F06151A05D17E243
:10051000A2C0F6FFA22BA3C0F7FF000EA323A4C026
:10052000F8FFA4230800F5CFA1F0A051EA6A650FF7
:10053000E96E000EEA22A1C0EFFFA02BE6D7120061
:10054000A66AA68EA6840001A06B62C0A2F063C05A
:10055000A3F064C0A4F06151A05D23E2A051EA6A57
:10056000650FE96E000EEA22EFCF02F0A2C0F6FF9F
:10057000A3C0F7FFA4C0F8FF02C0F5FF0C001F0ED8
:10058000A2151F0803E06105A05D05E1550EA76EE9
:10059000AA0EA76EA682A02BA22B000EA323A42333
:1005A000DAD7F86A1200A66A0001A06B62C0A2F056
:1005B00063C0A3F064C0A4F06151A05D14E2940E86
:1005C000A66EA2C0F6FFA3C0F7FFA4C0F8FF550EA9
:1005D000A76EAA0EA76EA682A02B400EA227000E21
:1005E000A323A423E9D7F86A1200C40EA66E000163
:1005F000A06B62C0A2F063C0A3F064C0A4F061511C
:10060000A05D23E2A051EA6A650FE96E000EEA22BE
:10061000EFCF02F0A2C0F6FFA3C0F7FFA4C0F8FF1F
:1006200002C0F5FF0C001F0EA2151F0803E06105B4
:10063000A05D05E1550EA76EAA0EA76EA682A02B9F
:0E064000A22B000EA323A423DAD7F86A12001F
:02064E000001A9
:10065000A7A511D0040108510001800B02E0A79D5D
:1006600001D0A78D04010C510001800B02E0A79F6F
:1006700001D0A78F02D0A79DA79F1200400E0401B2
:100680000C15400A80090C6F27EF03F0400E04019F
:100690000815400A8009086F27EF03F0D9CFE6FF5D
:1006A000DACFE6FFE1CFD9FFE2CFDAFF0001800E1B
:1006B000A96F050EAA6F400EAF6FAF51AF070009CB
:1006C00016E0A9C0E9FFAAC0EAFFA92B000EAA23E1
:1006D000EF50E66EFC0EDBCFE9FFDB2AFD0EDBCF31
:1006E000EAFF01E3DB2AE552E750EF6EE6D7CEDF03
:1006F000E552E5CFDAFFE7CFD9FF1200D9CFE6FF09
:10070000DACFE6FFE1CFD9FFE2CFDAFF0001C00E7A
:10071000AC6F050EAD6F400EAF6FAF51AF07000964
:1007200016E0FC0EDBCFE9FFDB2AFD0EDBCFEAFF94
:1007300001E3DB2AEF50E66EACC0E9FFADC0EAFF93
:10074000AC2B000EAD23E552E750EF6EE6D796DFF7
:0C075000E552E5CFDAFFE7CFD9FF120039
:04075C000600FF098B
:1007600001A10119012940150026FF0075089540D7
:100770008102190129409102C0120101010000000B
:1007800040D80436000001010200010902290001DD
:100790000100803209040000020300000009210169
:1007A000000001221D000705010340000A07058122
:1007B0000340000A0403090434034D006900630088
:1007C00072006F0063006800690070002000540030
:1007D0006500630068006E006F006C006F006700CA
:1007E0007900200049006E0063002E002E035000A7
:1007F000490043006B00690074002000530065004D
:100800007200690061006C00200041006E00610010
:0A0810006C0079007A0065007200A8
:06081A00D9CFE6FFDACFA2
:10082000E6FFE1CFD9FFE2CFDAFFE652C30ED56E85
:1008300094909398938AF19E0001620EBB6F020E12
:10084000BC6F30D881AA0DD0FE0EF66E7C0EF76E0E
:10085000F86A0800F550DF6E550EDF5C02E100EF2C
:1008600010F002EC02F01DEC00F08B808A985B0E19
:100870000001BB6FBC6B8BEC00F003EC02F019D8ED
:100880000001BB51BC1106E15B0E0001BB6FBC6BEC
:100890008B708A78F0D7E552E552E5CFDAFFE7CFE3
:1008A000D9FF12000001BB51BC1102E002D8FAD7F7
:1008B0001200F2A408D0F2940001BB51BC1103E075
:0808C000BB07000EBC5B120037
:0808C8002A0EF66E000EF76E19
:1008D000000EF86E00010900F550B66F0900F550E2
:1008E000B76F03E1B66701D03DD00900F550B16F95
:1008F0000900F550B26F0900F550B36F0900090007
:10090000F550E96E0900F550EA6E0900090009008A
:10091000F550B46F0900F550B56F09000900F6CF26
:10092000B8F0F7CFB9F0F8CFBAF0B1C0F6FFB2C067
:10093000F7FFB3C0F8FF0001B45302E1B55307E07D
:100940000900F550EE6EB407F8E2B507F9D7B8C064
:10095000F6FFB9C0F7FFBAC0F8FF0001B607000EF6
:06096000B75BBFD71200D7
:0A09660013EE00F023EE00F0F86A33
:10097000019C64EC04F0CFEC04F00DEC04F0FBD728
:02098000120063
:0E098200896A8A6A8B6A926A936A946A120082
:0E09900000EE00F00F0EEE6AEA62FDD71200D4
:02099E00120045
:06200000E8EF3FF01200C2
:082008000600B6EF3EF01200E5
:06201800B9EF3EF01200DA
:06202A0006D814D8E66A96
:1020300077D8E55230EF10F0B5EC14F084EC22F0D4
:10204000C66A9D96948C93809382948E928A928293
:10205000928492861200898892980F0EC16E1200A7
:1020600037EC2BF0F2EC2AF00001A66BA76B9A6B11
:102070000001936B0001946B0001956B0001B86B3C
:102080003DEC29F0E66A60EC28F0E552E66A7CEC6B
:1020900028F0E5520001F40EBD6F89889298000186
:1020A000836B846B866B876B886B896B8A6B8B6B9E
:1020B0008C6B8D6B8E6B8F6B906B916B926B855174
:1020C00019E0010A17E0050A15E0010A13E0030A06
:1020D00011E0010A0FE0050A0AE0010A08E0080A17
:1020E00006E0010A01E006D0CAEC14F006D0C3EC09
:1020F00024F003D0ADEC2AF000D012000001A86B50
:10210000A96BAA6BAB6BAC6BAD6BAE6BAF6BB06B13
:10211000B16BB26BB36BB46BB56BB66BB76B1200D4
:10212000D9CFE6FFDACFE6FFE1CFD9FFE2CFDAFF82
:10213000FD0EDB500A0A33E00D0A2AE0030A21E013
:10214000010A1FE0030A1DE0040A13E0010A11E07E
:10215000080A0FE00A0A06E0010A03E027D000019E
:10216000839527D0B0EC1FF0000902E000018385C1
:1021700020D000005CEC24F0000902E0000183851F
:1021800018D038EC22F0000902E00001838511D05C
:1021900090EC1CF0000902E0000183850AD0ABEC52
:1021A00014F0000902E00001838503D0000183855B
:1021B00000D0000183B503D0FD0EDBCF85F0E552E2
:1021C000E5CFDAFFE7CFD9FF1200000160AD11D0F3
:1021D000000170AB0CD0000170AD06D073C0E6FFFB
:1021E00085EC29F0E55202D079EC29F002D080ECA0
:1021F00029F00001BD5112E174C0E6FF52EC29F054
:10220000E5520001866F0001F40EBD6F070100A3C7
:1022100003D00001838702D000018397000170A9D9
:1022200002D0899801D089880001855101E17FD0D1
:102230000001A791000000019A517F0824E20000EC
:10224000000185510A0A1BE00D0A16E0030A11E09D
:10225000010A0FE0030A0DE0040A08E0090A06E09B
:102260000A0A01E00FD048EC20F00CD02BEC25F04E
:1022700009D09DEC22F006D0A6EC1EF003D002ECB3
:1022800015F000D001D054D80001A7B1D1D700017A
:1022900070B348DB0001A7A50FD00001C651C711DC
:1022A0000BE100018381000171A704D0180EE66ED6
:1022B00090DAE5520001A7950001A7A70FD0000111
:1022C000C851C9110BE100018383000171A904D039
:1022D000190EE66E7EDAE5520001A79700018551DE
:1022E0000A0A1BE00D0A16E0030A11E0010A0FE0DA
:1022F000030A0DE0040A08E0090A06E00A0A01E000
:102300000FD0EDEC1FF00CD0F6EC24F009D021EC4E
:1023100024F006D04FEC1EF003D038EC16F000D0BD
:102320007F0E0001831503E000000001838F12007F
:10233000000183A903D000010F0E9A6F00019A518A
:10234000240A01E1AAD1070A01E1A4D1010A01E1AD
:102350009ED1030A01E198D1010A01E190D13F0A1F
:1023600001E17CD1030A01E16FD1070A01E149D102
:10237000060A01E135D1070A01E116D1030A01E19C
:102380000DD1010A01E107D10E0A01E101D1010AD3
:1023900001E1EAD0020A01E1D3D0050A01E1B0D09F
:1023A000030A01E1A2D0010A01E194D01D0A01E172
:1023B0008ED00D0A3EE0030A08E0010A03E00001A6
:1023C000838983D1A66B010E9A6FA7A309D0A05170
:1023D00004E1020E9A6FA78178D10001848303D0B3
:1023E00000018493849572D9000915E09BC09AF08E
:1023F0000001A781100E9A5D03E2000183890AD0D3
:1024000000018481000167BB05D0200EE66E60EC00
:1024100028F0E5520DD0000184A10AD0000167BB6D
:1024200005D0A40EE66E60EC28F0E5520001849120
:102430004CD1000170AF0DD0A3C0E6FFA2C0E6FFF3
:10244000170EE66E11DAE552E552E5520001A79348
:102450003CD000018451040B17E10001A451A219E2
:1024600002E1A551A31910E1000171A50AD0A3C092
:10247000E6FFA2C0E6FF150EE66EF6D9E552E5527C
:10248000E5520001A79321D0000171A10AD0A3C099
:10249000E6FFA2C0E6FF120EE66EE6D9E552E5526F
:1024A000E5520001A22B000EA323F6C0A0F000010C
:1024B0007151020B08E00001A251A31104E1160EB4
:1024C000E66E87D9E5520001A7819A6BFED0000124
:1024D0008491FBD0FBD8000907E09BC0E6FF60ECCD
:1024E00028F0E55200019A6BF0D0F0D8000907E01F
:1024F0009BC0E6FF7CEC28F0E55200019A6BE5D02A
:10250000A6B108D0E3D8000904E09BC0CAF00001DE
:10251000A68115D0A6B308D0D9D8000904E09BC085
:10252000CBF00001A6830BD00001CA51CB1103E010
:102530000001848704D000019A6B00018497C5D004
:10254000A6B108D0C3D8000904E09BC0C6F00001C2
:10255000A68109D0BBD8000906E09BC0C7F00001E6
:10256000A7859A6BA781B1D0A6B108D0AFD80009D2
:1025700004E09BC0C8F00001A68109D0A7D80009DB
:1025800006E09BC0C9F00001A7879A6BA7819DD088
:10259000A7959A6B9AD0A7979A6B97D0ADEC2AF033
:1025A00000019A6BA79391D0A6B109D00001FE510A
:1025B00005E03DEC2BF000019E6FA68110D00001DC
:1025C000FE510DE000019E519E07000906E03DEC22
:1025D0002BF0E66EDBD8E552F2D79A6B00D075D0BF
:1025E0000001FE510DE03DEC2BF000019B6F1E0E33
:1025F0009B5D02E19A6B04D09BC0E6FFC7D8E55211
:1026000064D0A6B10BD00001FE5107E00001A26B1F
:102610003DEC2BF00001A46FA68115D00001FE5106
:1026200012E00001A36B3DEC2BF00001A56F020E40
:102630009A6FA451A51103E10001848502D0000125
:1026400084950001A78341D00001848F1B0EE66EA4
:10265000C0D8E5520001A7899A6B37D037D8000956
:102660000DE09BC0E6FF1C0EE66ED6D8E552E552A3
:1026700000019A6B770E9B5D01E1A78926D03DECA6
:1026800029F000019A6B21D0A7899A6B1ED081AAEC
:102690009A6B1BD081BA9A6B18D0810E9B6F11D99F
:1026A0000001020E9B6F0DD90001030E9B6F09D92B
:1026B0000001040E9B6F05D97F0E0001B8159B6FBA
:1026C00000D90001B82B9A6B00D012000001A79B23
:1026D000F2AC06D0F2AC02D0F29CFCD70001A78B82
:1026E000A7A313D00001F6510FE0B3EC2AF00001CC
:1026F0009B6F9BC0E6FFCBEC2AF0E5520001A007E0
:10270000A7BBF28C010E11D00BD00001FE5108E0E6
:102710003DEC2BF000019B6FA7BBF28C010E05D0A6
:102720000001A7BBF28C000E00D01200D9CFE6FF4B
:10273000DACFE6FFE1CFD9FFE2CFDAFF0001FB51AC
:1027400007E0FD0EDBCFE6FF10EC2BF0E55202D0E8
:102750000001838BE552E5CFDAFFE7CFD9FF120006
:10276000D9CFE6FFDACFE6FFE1CFD9FFE2CFDAFF3C
:10277000FD0EDBCFE6FFDADFE552000170B3B7D81C
:10278000E552E5CFDAFFE7CFD9FF1200D9CFE6FF58
:10279000DACFE6FFE1CFD9FFE2CFDAFF0001F75150
:1027A00007E0FD0EDBCFE6FFCBEC2AF0E55202D0CE
:1027B0000001838DE552E5CFDAFFE7CFD9FF1200A4
:1027C000000167B905D0A50EE66E7CEC28F0E55255
:1027D0001200D9CFE6FFDACFE6FFE1CFD9FFE2CF93
:1027E000DAFF0001A79BF2AC06D0F2AC02D0F29C5B
:1027F000FCD70001A78B000170A105D0FD0EDBCF37
:10280000E6FFAEDFE5520001A7BBF28CE552E5CF53
:10281000DAFFE7CFD9FF1200D9CFE6FFDACFE6FF24
:10282000E1CFD9FFE2CFDAFF0001A79BF2AC06D0DF
:10283000F2AC02D0F29CFCD70001A78B000170A182
:102840000AD0FD0EDBCFE6FF71DFE552FC0EDBCFD9
:10285000E6FF86DFE5520001A7BBF28CE552E5CF2B
:10286000DAFFE7CFD9FF1200D9CFE6FFDACFE6FFD4
:10287000E1CFD9FFE2CFDAFF0001A79BF2AC06D08F
:10288000F2AC02D0F29CFCD70001A78B000170A132
:102890000FD0FD0EDBCFE6FF49DFE552FC0EDBCFAC
:1028A000E6FF44DFE552FB0EDBCFE6FF59DFE552E2
:1028B0000001A7BBF28CE552E5CFDAFFE7CFD9FFE5
:1028C00012000001A79BF2AC06D0F2AC02D0F29C41
:1028D000FCD70001A78B100EE66E28DFE5529BC0E7
:1028E000E6FF3EDFE5520001A7BBF28C12000001BB
:1028F000A79FF2AC06D0F2AC02D0F29CFCD700014C
:10290000A78F10D8130EE66E11DFE552D2C0E6FF96
:102910000DDFE552D3C0E6FF09DFE5520001A7BF96
:10292000F28C12000001A79DF2AC06D0F2AC02D0EE
:10293000F29CFCD70001A78D2FEC29F00001D0A359
:1029400006D0140EE66EF2DEE5520001D0930001CF
:06295000A7BDF28C12008D
:0A29560009D812D81CD8ADEC2AF005
:102960000101016B000E00D012009D9A9D98AC6A87
:10297000AB6AB86A948C948E938093821200949C74
:10298000948E93909382B886AC84AB8E9F9A9F98D6
:10299000AC8A1200D9CFE6FFDACFE6FFE1CFD9FF4C
:1029A000E2CFDAFFE6529D9A9D987DC0AFFF7EC0D0
:1029B000B0FFB8B0B890B89E9EAA02D0AE50DF6EFD
:1029C0009D8AABB2AB98000177AD02D0AB8801D045
:1029D000AB9877A702D0818001D081900001A86BCD
:1029E000A96B00018B6B8C6B8D6B8E6B8F6B906BFF
:1029F000916B926B3DD9E552E552E5CFDAFFE7CF17
:102A0000D9FF12000001A891F2AC06D0F2AC02D0BE
:102A1000F29CFCD70001A881000177A702D0818039
:102A200001D0819000019A5101E11AD1870A01E198
:102A3000E0D0010A01E196D0030A01E176D0040A50
:102A40003CE0030A0AE0010A08E0070A06E0040A7B
:102A500002E007D100007FDF07D10001A6B116D048
:102A6000ACA202D10001A9890001A681AC869D8893
:102A7000AD6A0001A883E0EC13F0000178A505D051
:102A8000840EE66EE9EC13F0E552EED0820E000102
:102A90009A5D0AE19EA807D09D980001A8930001C5
:102AA0009A6B0001A781E0D0840E00019A5D02E1DB
:102AB0000001A6870001810E9A6F0001A6B30CD019
:102AC000ACA2D2D066EC13F0000905E00001A683A9
:102AD0009BC09FF001D0C8D00001A6A325D0000163
:102AE000A6A70BD09EA807D00001A6970001550EFF
:102AF0009B6F2EDB01D0B8D017D000019F5109E1A8
:102B00009EA805D09D980001A89300019A6BACD0B7
:102B10000BD09EA809D066EC13F0000905E0000177
:102B20009F07E0EC13F014DB9FD00001A6B10DD09D
:102B300066EC13F0000908E09BC0AFFFAFCF91F047
:102B40000001A6810001A7810CD066EC13F00009FA
:102B500008E09BC0B0FFB0CF92F000019A6B00017B
:102B6000A78182D00001A6B110D066EC13F0000955
:102B70000CE00001A6819BC09DF09BC0E6FFBCD885
:102B8000E552000902E00001A6890001A6B308D0C1
:102B900066EC13F0000904E00001A6839BC09EF0E0
:102BA0000001A6A325D000019E5106E100019A6B09
:102BB0000001A7811DD01BD066EC13F0000916E0C0
:102BC00000019E070001A6A910D00001AD510DE043
:102BD0000001AE51EA6A000FE96E010EEA229BC0C5
:102BE000EFFF0001AD070001AE2B01D001D0DBD714
:102BF0003BD066EC13F0000932E0880EE66E96ECEE
:102C000013F0E5529BC0E6FF96EC13F0E5529BC033
:102C1000E6FF72D8E55200091AE0ADC0E6FF96EC77
:102C200013F0E5520001AD51AD0700090FE00001BE
:102C3000AE51EA6A000FE96E010EEA22EF50E66E2D
:102C400096EC13F0E5520001AE2BECD704D0E66A07
:102C500096EC13F0E55200019A6B0001A78104D0B5
:102C600003D00001838900D00001A8B1F28C1200CA
:102C7000D9CFE6FFDACFE6FFE1CFD9FFE2CFDAFF27
:102C8000E6520001A9A102D000018B810001A991A7
:102C900000010001A951020B03E1AB50020B06E059
:102CA00000018B83AB98AECF9CF0AB880001A99359
:102CB0000001A9A502D000018B870001A995AFCF23
:102CC00091F0B0CF92F00001A9A704D0E0EC13F08E
:102CD0000001A99781B202D000018B857F0E00010F
:102CE0008B1503E0000000018B8FE552E552E5CF24
:102CF000DAFFE7CFD9FF1200D9CFE6FFDACFE6FF40
:102D0000E1CFD9FFE2CFDAFF0001010EAA6F12D89E
:102D1000000908E0FD0EDB500001AB5D02E1010E91
:102D200003D0F5D7000E00D0E552E5CFDAFFE7CFAC
:102D3000D9FF1200D9CFE6FFDACFE6FFE1CFD9FF06
:102D4000E2CFDAFFE6520001AA51EA6A000FE96E0B
:102D5000010EEA22EFCFDFFFDFAE15D0DFCFACF000
:102D60000F0EDF14AD6FAA2BAA51EA6A000FE96EAD
:102D7000010EEA22EFCFABF0AA2BAAC0AEF0AD5104
:102D8000AA27010E02D0000E00D0E552E552E5CF91
:102D9000DAFFE7CFD9FF1200D9CFE6FFDACFE6FF9F
:102DA000E1CFD9FFE2CFDAFFE652ABA402D00001B7
:102DB000A981ABA202D00001A983AECF9CF0000094
:102DC00000019C5101E0D7D000010001A951010B85
:102DD00001E1D1D00001A9910001A98D000178A7DE
:102DE00005D0830EE66EE9EC13F0E5520001A889E8
:102DF0000001A89B0001A89F0001A8970001A895C9
:102E00000001A897000100017751800B01E1B2D0C9
:102E100000010001A951100B01E0ACD0A60EE66E36
:102E20000E0EE66E68EC2AF0E552E5520001A98527
:102E3000A1B206D082AE03D00001A99501D0F8D787
:102E400000000001A9B579D0B8800001B16B000184
:102E5000A98B0001A985100EE66E270EE66E68ECC0
:102E60002AF0E552E552A1B21AD00001A9BB10D058
:102E700082AE0DD0050E0001B15D07E10000B890F3
:102E8000AECF9CF00001A9950AD00001A98B06D015
:102E900082BE04D00001A99B0001B12BE4D7B8A0E9
:102EA00003D0B8900001A98DB8AE04D0B890B89EF8
:102EB0000001A9850001A9B540D0AFCFA2F0B0CFE5
:102EC000A3F07DC0A4F07EC0A5F00001A2510001D6
:102ED000A45D0001A3510001A5590DE20001A45118
:102EE0000001A25D0001A26F0001A5510001A359DC
:102EF0000001A36F0CD00001A2510001A45D0001EC
:102F0000A26F0001A3510001A5590001A36F030E98
:102F10000F0B000105E0D890A533A433E806FBE1D0
:102F20000001A2510001A45D0001A3510001A559B7
:102F300002E20001A9850001A99D0001A9A50AD00E
:102F40007DC0AFFF7EC0B0FF0001A9BD02D000016F
:102F5000A99502D00001A88B000178A90BD0B05030
:102F6000E66EAF50E66E850EE66E34EC14F0E55278
:102F7000E552E552A2D000000001A9990001A987FD
:102F80000001A8BB03D00001A88B97D09CC0E6FF2E
:102F9000100EE66E0CEC14F0E552E552000178A13B
:102FA00008D09CC0E6FF800EE66E0CEC14F0E552F3
:102FB000E5520001A8BF3CD00001A88F0001A895F0
:102FC0000001A897000177AB32D09CC0E6FFE4D89F
:102FD000E55200019C5D0BE0000178AD08D09CC07B
:102FE000E6FF870EE66E0CEC14F0E552E5529CC04D
:102FF000E6FF82DEE55200091AE00001AF6BB06B1C
:1030000000010001AC51200B09E03C0E0001AB5D5A
:1030100005E200019C510001AF6FB06B0001ACA94B
:1030200004D00001A88550D802D00001A88745D05F
:10303000000177AB42D00001A8A73FD00001AD51FD
:1030400025E000019C51146E156A14500001AF2751
:1030500015500001B0230001FF0ED880AF55000EBF
:10306000B05506E2FF0E0001AF5F000E0001B05B3D
:103070000001AE51EA6A000FE96E010EEA229CC01F
:10308000EFFF0001AE2B0001AD0717D00001ACBD72
:1030900012D00001AF1D00019C5D02E100000BD0C9
:1030A000000178AB08D0ABC0E6FF860EE66E0CECF4
:1030B00014F0E552E5520001A897E552E552E5CF3C
:1030C000DAFFE7CFD9FF1200D9CFE6FFDACFE6FF6C
:1030D000E1CFD9FFE2CFDAFFE6520001A8A302D088
:1030E00091DC2FD0A8A52CD0AD5121E0AE51EA6AD9
:1030F000000FE96E010EEA22EFCFDFFFDF50146E02
:10310000156A1450AF271550B023FF0ED880AF5565
:10311000000EB05504E2FF0EAF5F000EB05BDFCFD4
:10312000E6FF1DD8E5520001AE2BAD0708D0ACBDBF
:1031300004D0AF1DE66E13D8E5520001A89501D06A
:103140009D98E552E552E5CFDAFFE7CFD9FF1200AF
:103150000001A8839BC0E6FF02D8E5521200D9CF38
:10316000E6FFDACFE6FFE1CFD9FFE2CFDAFFFD0ECF
:10317000DB50AD6E9D88000178A308D09BC0E6FFB0
:10318000810EE66E0CEC14F0E552E552E552E5CF07
:10319000DAFFE7CFD9FF1200D9CFE6FFDACFE6FF9B
:1031A000E1CFD9FFE2CFDAFFE652FD0EDB9CDB9EDA
:1031B000FD0EDB50170BDF6EDF0415E0020EDF5C47
:1031C00012E0040EDF5C0FE0070EDF5C0CE0100E77
:1031D000DF5C09E0130EDF5C06E0150EDF5C03E048
:1031E000160EDF5C02E1FD0EDB8CFD0EDB503A0BB0
:1031F000DF6EDF5015E00A0EDF5C12E0120EDF5CBE
:103200000FE0180EDF5C0CE0220EDF5C09E0280EF8
:10321000DF5C06E0300EDF5C03E03A0EDF5C02E1CB
:10322000FD0EDB8EFD0EDB5000D0E552E552E5CF02
:08323000DAFFE7CFD9FF12001D
:083238000001606B37EC2BF084
:10324000F2EC2AF0ADEC2AF015EC10F045EC29F088
:103250000001646B6451130809E36451EA6A7F0F4B
:10326000E96E000EEA22EF6A642BF4D7E1D8000180
:10327000608DF18E938A1200000180938150200BA3
:1032800001E0808368A11FD081AA0ED060B70BD067
:10329000E66A60EC28F0E552C00EE66E7CEC28F0A1
:1032A000E552000160870DD060A70BD0C00EE66E1E
:1032B00060EC28F0E552E66A7CEC28F0E55200016B
:1032C000609780810CD080A10AD0E66A60EC28F07B
:1032D000E552E66A7CEC28F0E5520001809100019D
:1032E000D6AD0AD009C463F00001800E616F050EEF
:1032F000626F08D956EC3FF00001A7A906D0A79944
:103300000001FA5102E000016083000167AD07D0BF
:103310006A510001D880FA5502E200016083000181
:1033200067AF09D00001BE5106E12FD80001FA5164
:1033300002E000016083000160BD18D06051040B01
:1033400003E16051100B12E00001D6AF0FD0F5D9A8
:10335000000160A505D06095E66A22DAE55205D045
:10336000609999C0E6FF1CDAE552EED9000160A32E
:103370000BD00001D6AF08D0000160930001FA51D4
:1033800003E0DBD9EBD9E0D912006BC0BEF000013D
:10339000BE5101E1BE691200D9CFE6FFDACFE6FFE8
:1033A000E1CFD9FFE2CFDAFFFD0EDB50090A29E0B9
:1033B0000E0A24E0010A1FE0030A1AE0010A16E0DF
:1033C000070A12E0010A0DE0030A05E0010A01E024
:1033D0001FD032DF1DD06FC0E6FF90EC10F0E55239
:1033E00017D00001608514D04ED812D017D810D055
:1033F000000160830DD015EC10F00AD030EC10F015
:1034000007D000006FC0E6FF90EC10F0E55200D04E
:10341000E552E5CFDAFFE7CFD9FF120050D8000917
:1034200004E006D800017F8B02D000017F9B1200D0
:103430000001646B180E645D25E2340E146E570EA5
:10344000156E000E166E64C017F0186A196A1450D3
:103450001724F36E15501820F46E16501920F86ECC
:10346000F4CFF7FFF3CFF6FF0800F550E66E645196
:10347000EA6A670FE96E000EEA22E552E750EF6E46
:10348000642BD8D712000001646B120E666FA96A14
:10349000180E0001645D0EE26451642BEA6A670F46
:1034A000E96E000EEA22EF50A86EA8506627D2EC13
:1034B0003FF0EED7661D010FA86ED2EF3FF000017E
:1034C000120E666F646B180E645D13E264C0EDF05B
:1034D000C9EC3FF0E66E00016451EA6A670FE96EDD
:1034E000000EEA22E552E750EF6EA8506627642BE3
:1034F000EAD764C0EDF0C9EC3FF0000166276651E1
:1035000000D0120000017F990001608100010001DC
:103510006051010B01E110D1000100017F51100B3E
:1035200001E00AD1B7D9000903E10001609104D19B
:10353000000166510C0A01E1F7D0070A01E1E9D068
:10354000490A01E1CAD0200A01E1C7D0680A01E1B5
:10355000C1D0030A01E1BBD0010A01E1B5D00F0AD5
:1035600001E1A6D0010A01E197D0030A73E0010A44
:103570004FE0070A33E0010A13E0030A06E0010AFC
:1035800001E0D6D000016091D6D084D9000905E0D1
:1035900066C0E6FF01DFE55202D000017F89CBD093
:1035A0000001608D0001646B180E0001645D15E27E
:1035B00071D900090CE000016451EA6A670FE96EF5
:1035C000000EEA2266C0EFFF0001642B05D0000167
:1035D0007F890001609D01D0E7D7ADD05BD900099C
:1035E00014E066C064F064C096F0FFC097F000017C
:1035F00064516407000908E04DD9000902E076D95A
:1036000002D000017F89F3D702D000017F8993D0D7
:1036100041D900091CE066C064F0000164516407F0
:10362000000914E037D900090EE00001FB5106E063
:1036300066C0E6FF10EC2BF0E55204D000017F8558
:1036400000017F8902D000017F89E7D702D0000105
:103650007F8971D01FD900091CE066C064F00001A9
:1036600064516407000914E015D900090EE0000157
:10367000F75106E066C0E6FFCBEC2AF0E55204D035
:1036800000017F8700017F8902D000017F89E7D791
:1036900002D000017F894FD0FDD8000906E066C046
:1036A000E6FF60EC28F0E55202D000017F8943D0AC
:1036B000F1D8000906E066C0E6FF7CEC28F0E55290
:1036C00002D000017F8937D037EC2BF034D0F2ECF8
:1036D0002AF031D0ADEC2AF02ED06BEC26F0A66AA1
:1036E000A68EA684FE0EF66E7C0EF76EF86AF56A5C
:1036F0000C00550EA76EAA0EA76EA6820001B50E8D
:10370000BE6F0001BE5103E0E1EC28F0FAD7FF00E4
:1037100012D0C0D8000905E066C099F000016089A8
:1037200002D000017F8907D06BEC26F0FF0003D0A8
:1037300000017F8900D0EAD612000001C00E616F3F
:10374000050E626F636B1200400E0001635D04E2C0
:10375000800EE66EB2D8E5524EEF3FF0400E00010B
:10376000D8806355FE0F646F0001FA510001D880C4
:10377000645502E2FAC064F0860EE66E9ED8E55209
:1037800064C0E6FF9AD8E55200016451640700095D
:1037900006E0F8EC2AF0E66E90D8E552F5D7120074
:1037A000D9CFE6FFDACFE6FFE1CFD9FFE2CFDAFFEC
:1037B000880EE66E82D8E552FD0EDBCFE6FF7DD89F
:1037C000E552810EE66E79D8E552050EE66E75D8A3
:1037D000E552030EE66E71D8E552820EE66E6DD8A4
:1037E000E5520001646B180E645D0DE26451EA6AF3
:1037F000670FE96E000EEA22EF50E66E5ED8E552E2
:103800000001642BF0D7830EE66E57D8E552000115
:10381000646B140E645D0DE26451EA6A7F0FE96E19
:10382000000EEA22EF50E66E48D8E5520001642B04
:10383000F0D7840EE66E41D8E5520001609BF2ACF1
:1038400006D0F2AC02D0F29CFCD70001608BFEC027
:10385000E6FF33D8E552FFC0E6FF2FD8E552FAC0A5
:10386000E6FF2BD8E552FBC0E6FF27D8E552F6C0AD
:10387000E6FF23D8E552F7C0E6FF1FD8E552FFC0A8
:1038800098F0000160BBF28CE552E5CFDAFFE7CF9C
:10389000D9FF120000016351630700090BE061C00A
:1038A000E9FF62C0EAFF612B000E6223EFCF66F0F2
:1038B000010E02D0000E00D01200D9CFE6FFDACF01
:1038C000E6FFE1CFD9FFE2CFDAFF00016351632BBE
:1038D000EA6A6125E96E6251EA22FD0EDBCFEFFF55
:1038E000E552E5CFDAFFE7CFD9FF12000001609B78
:1038F000F2AC06D0F2AC02D0F29CFCD70001608B97
:103900000001FF5106E066C0E6FF55EC2BF0E552E2
:1039100003D000017F837F89000160BBF28C12001D
:103920007EEC10F003D8000E00D01200C66A9D96FF
:103930000001A86B8A828A8093829380928292840B
:103940007DC0C8FF3E0E00017E150109C56E160E32
:10395000C66E9E969F969D86C68A1200B0C0ACF039
:103960000001A89B00018BB121D038D8400E000186
:10397000AD5D01E01BD0B1A713D0B251AB5D0FE339
:10398000B251B325AB5D0BE2B251AB5DB26FB25138
:10399000B35FB251B427ABC0B2F0A88B07D005D04B
:1039A000AB51B25D02E1A88B01D0DCD7120000015F
:1039B000010EAC6FA899A89B11D8200E0001AD5D37
:1039C00005E1AA51AE5D02E1A88907D0800EAD5D88
:1039D00004E000018B51010BEFE012000001AC513B
:1039E000EA6A000FE96E010EEA22EFCFADF0800E19
:1039F000AD5D38E0AC2B200EAD5D10E1AC51EA6A54
:103A0000000FE96E010EEA22EFCFAEF0020EAC27F6
:103A1000ACC0AFF0AC2BACC0B0F024D0400E146EF4
:103A2000F00EAD15145C1CE10F0EAD15B16FF00E6C
:103A3000AD17AC51EA6A000FE96E010EEA22EFCF32
:103A4000B2F0AC2BAC51EA6A000FE96E010EEA222B
:103A5000EFCFB3F0AC2BACC0B4F0B351AC2702D075
:103A600000018B8112009EA60AD19E96C7A09FD00E
:103A7000C7AA5AD0C9CFA9F0000178A308D0A9C01D
:103A8000E6FFC10EE66E0CEC14F0E552E5520001C3
:103A9000A8A116D0A9C0ABF0020E0001775D0DE120
:103AA0000001A8A90AD05ADF0001AF51EA6A000F4D
:103AB000E96E010EEA22ABC0EFFF0001A89132D0FF
:103AC000020E0001775D2EE10001A8AB17D0B1B165
:103AD0000CD0B3510AE0B451EA6A000FE96E010E4E
:103AE000EA22A9C0EFFFB42BB307B1A707D0AF51AB
:103AF000EA6A000FE96E010EEA22EF2AA851400B94
:103B000011E000017851400B0DE00001A89DABC011
:103B1000E6FFAAC0E6FFCA0EE66E34EC14F0E552EA
:103B2000E552E552C68843D0C9CFAAF00001B7815B
:103B3000000178A108D0AAC0E6FFC00EE66E0CEC2A
:103B400014F0E552E5520001AA91A881020E00018D
:103B5000775D03E10001A88D2ADFC7A425D000010D
:103B6000A883020E0001775D1EE10001A8A909D01B
:103B7000AF51EA6A000FE96E010EEA22EFCFABF017
:103B8000EDDE0001A8AD0FD0A89D000178AB0BD0F1
:103B9000ABC0E6FFAAC0E6FFC90EE66E34EC14F037
:103BA000E552E552E55203D00001A893C688000112
:103BB000A8A31BD0C6B80BD0A8B108D0000178A725
:103BC00005D0C30EE66EE9EC13F0E5520ED0A893D3
:103BD000000178A905D0C40EE66EE9EC13F0E552B9
:103BE0000001770502E1ADEC2AF00001A8A347D05F
:103BF000000177510AE10001A8A103D07CC0A9F01F
:103C000002D07BC0A9F03CD838D0770514E1000180
:103C1000F65106E0B3EC2AF00001A96F31D80AD0C2
:103C20000001A885000179A505D0C80EE66EE9EC73
:103C300013F0E55222D00001A89FA8AB1AD0B1B36F
:103C40000FD0B3510DE0B451EA6A000FE96E010ED6
:103C5000EA22EFCFA9F014D80001B42BB307A88F44
:103C6000B1A707D0AF51EA6A000FE96E010EEA2250
:103C7000EF2AA8BF02D0A96903D80001A8911200B9
:103C8000A9C0C9FFC688000178A508D0A9C0E6FF71
:103C9000C20EE66E0CEC14F0E552E5521200000183
:103CA000B7A10FD0F29CF2BCFDD7C7A80AD0000183
:103CB00079A305D0C60EE66EE9EC13F0E5520001DB
:103CC000B791F28C80A203D000018C8302D0000156
:103CD0008C9380A402D08C8101D08C910001770557
:103CE0000DE10001A8A50AD00001F65107E000018E
:103CF000A895B3EC2AF00001A96FC2DF0001A699D4
:103D0000C6AE04D0A689C69E00018B8DC6AC05D078
:103D10000001A689C69C00018B8B7F0E00018B15CC
:103D200002E0838F8B8F000178AF0FD00001955197
:103D300000018B5D0AE08BC095F08BC0E6FFC70EDB
:103D4000E66E0CEC14F0E552E552120000019A51B7
:103D5000C30A01E17BD0010A31E0030A09E0010A4C
:103D600003E000018389D2D0E1DD00019A6BCED05F
:103D70000001A6B30BD066EC13F0000906E09BC06F
:103D80009EF00001A683ADEC2AF017D000019E51F1
:103D90000DE066EC13F0000908E09BC0E6FFCBECF9
:103DA0002AF0E55200019E07F1D700D000019E5194
:103DB00004E10001A88700019A6BA8D00001A6B316
:103DC0000BD0030E0001FE5D06E3A1D80001A6A3FF
:103DD00002D00001A78139D0A6B51BD066EC13F044
:103DE0009BC0AAF066EC13F09BC0ABF066EC13F03E
:103DF0009BC0B5F00001A895DADD0001A8A904D0A8
:103E0000ADDD0001A8BBA8850001A6850001A78142
:103E10001CD00001B55116E066EC13F0000911E06A
:103E20000001A8A50AD0B35108E0B451EA6A000F16
:103E3000E96E010EEA229BC0EFFFB42BB507B30772
:103E4000E8D700D0F28C00019A6B60D00001A6B3D5
:103E50000BD0020E0001FE5D06E359D80001A6A3B7
:103E600002D00001A78151D0A651040B30E1040E0D
:103E70000001FB5D2CE366EC13F09BC0AAF066EC3E
:103E800013F09BC0ABF00001A89591DD0001A8A93B
:103E900019D064DD0001A8AB15D0A885CB0EE66E65
:103EA00010EC2BF0E552AAC0E6FF10EC2BF0E55227
:103EB000ABC0E6FF10EC2BF0E552B3C0E6FF10EC10
:103EC0002BF0E5520001A6850001A7811ED000015C
:103ED000A8A518D0B35116E00001FB5112E0000173
:103EE000B451EA6A000FE96E010EEA22EFCF9BF0AF
:103EF0009BC0E6FF10EC2BF0E5520001B42BB3079A
:103F0000E9D700D0F28C00019A6B00D01200C750A4
:103F1000100B03E1C750080B02E0000E01D0010EA8
:103F2000146EC750100B01E0010E141018E0F2AC33
:103F300002D0F29CFCD7C750100B03E1C750080B0E
:103F400002E0000E01D0010E146EC750100B01E00C
:103F5000010E141003E00001A68301D0F28C1200C0
:103F60002FD8C69A7EC0C8FFC56AC8CF92F08A8291
:103F70008A8093829380280EC66E928292840F0E5E
:103F8000C1140C0802E20C0EC16E0001F40EBB6FEE
:103F900000017CA502D0948C01D0949C7CA102D01D
:103FA000828C01D0829C7CA702D0948E01D0949EFA
:103FB0007CA302D0828E01D0829E000E00D012001F
:103FC00000018B6B8C6B8D6B8E6B8F6B906B916B21
:103FD000926BC66A9382938012000001A699C6AEC6
:103FE00004D0A689C69E00018B81C6AC05D0000115
:103FF000A689C69C00018B830001A6A90BD00001F5
:1040000078A308D08BC0E6FF890EE66E0CEC14F0A6
:10401000E552E5527F0E00018B1502E0838F8B8FF6
:10402000000178A50FD00001945100018B5D0AE0DA
:104030008BC094F08BC0E6FF8A0EE66E0CEC14F099
:10404000E552E5520001BB5103E1F40EBB6F0ED8FF
:1040500000018F9594BC8F858F9794BE8F878F9129
:1040600082BC8F818F9382BE8F8312000001F40E79
:10407000BB6F3D0EC06E070EC26EC2B2FED7C4CF7C
:1040800090F00B0EC26EC2B2FED7C4CF91F01200F8
:1040900000019A519C0A01E194D1070A01E18BD1F8
:1040A000010A01E182D1030A01E17AD1010A01E1A9
:1040B00072D10F0A01E16AD1010A01E162D1030A5A
:1040C00001E159D1010A01E150D1070A01E148D1CA
:1040D000010A01E140D1030A01E138D1010A01E1FD
:1040E00030D1170A01E122D1010A01E105D10C0A00
:1040F00001E102D10F0A01E1A5D00C0A01E1A2D031
:104100000D0A4EE0070A37E0010A20E0030A09E041
:10411000010A03E000018389AAD122DF00019A6B22
:10412000A6D10001A6B10DD0C580A681000177A15E
:1041300005D0800EE66EE9EC13F0E552E0EC13F0EA
:1041400004D0C5B002D000019A6B91D10001A6B194
:104150000DD0C584A681000177A305D0810EE66E3F
:10416000E9EC13F0E552E0EC13F004D0C5B402D052
:1041700000019A6B7CD10001A6B10DD0C582A68149
:10418000000177A505D0820EE66EE9EC13F0E5524A
:10419000E0EC13F004D0C5B202D000019A6B67D1F5
:1041A0000001A6B109D066EC13F0000904E09BC041
:1041B0009FF00001A68145D0A6B30BD000019F510E
:1041C00003E100019A6B53D1C7B002D00001A6836E
:1041D00038D0A6B519D066EC13F0000914E0000140
:1041E0009F070001A6859E969BC0C9FF000177AF7F
:1041F00008D09BC0E6FF870EE66E0CEC14F0E5528B
:10420000E552E0EC13F01DD09EA61BD09E96C5ACE7
:104210000BD0000177AB05D0860EE66EE9EC13F00B
:10422000E55200018B8508D0000177AB05D0850EE3
:10423000E66EE9EC13F0E5520001A693A695E0ECDA
:1042400013F015D10001A6B109D066EC13F00009F6
:1042500004E09BC09FF00001A6814DD0A6B30CD016
:1042600000019F5105E100019A6B0001A781FFD079
:104270000001A683C5863FD0A6B523D09EA620D038
:104280009E96C9CF9BF0000178A108D09BC0E6FFA5
:10429000880EE66E0CEC14F0E552E55261EC14F079
:1042A00000019F070001A685C59A890E00019A5D4D
:1042B00004E100019F5101E1C58AC588E0EC13F0DB
:1042C0001AD09EA618D09E96000177A70DD0C5AA39
:1042D00006D0840EE66EE9EC13F0E55205D0830EAD
:1042E000E66EE9EC13F0E5520001A693A6950001F5
:1042F000A781E0EC13F0BBD09EA617D09E96C9CF45
:104300009BF061EC14F09BC09FF0C59AC58800013A
:10431000A681A683A6850001850E9A6F8A0E9A5DF6
:1043200002E1890E9A6FE0EC13F0A1D066EC13F075
:10433000000906E09BC0C8FFC8CF92F000019A6B4D
:1043400096D0829C9A6B0001A78191D0828C9A6B47
:104350000001A7818CD0949C9A6B0001A78187D023
:10436000948C9A6B0001A78182D082BC03D09A6B97
:104370000001A7817CD082AC03D09A6B0001A78199
:1043800076D0829E9A6B0001A78171D0828E9A6B43
:104390000001A7816CD0949E9A6B0001A78167D021
:1043A000948E9A6B0001A78162D082BE03D09A6B73
:1043B0000001A7815CD082AE03D09A6B0001A78177
:1043C00056D09A6B00018B85240EE66EF40EE66ED5
:1043D00068EC2AF0E552E55266EC13F09BC09CF0C5
:1043E00066EC13F09BC09DF0C580C5A003D0A1B2C0
:1043F00001D0FBD7A1B23BD09E969CC0C9FF9EB610
:1044000003D0A1B201D0FBD7C5BC31D0A1B22FD00F
:104410009E969DC09FF000019F511EE0C5869EB6EE
:1044200003D0A1B201D0FBD7A1B216D0C9CF9BF067
:104430009E9661EC14F0C59A00019F0501E1C58AC2
:10444000C5889EB603D0A1B201D0FBD7A1B204D0DB
:104450009E9600019F07DFD7C584C5A403D0A1B2F3
:1044600001D0FBD7A1B203D000018B9500D0120080
:1044700004D852D8000E00D0120000016F51060A75
:1044800018E0030A0EE0010A03E000018B8516D054
:1044900078A5AB88AB8E949C948EAC8A9F9A9D8AAB
:1044A0000DD078B1B888AC8EAC88AB8E949C948ECD
:1044B00005D0AC88AB8E948C948E00D000018BB567
:1044C00022D07DC0AFFFAFCF91F07EC0B0FFB0CFA4
:1044D00092F0B886AC84AC8A78C08DF000017CA5DF
:1044E00002D0938001D093907CA102D0818001D032
:1044F00081907CA702D0938201D093927CA302D0BA
:10450000818201D081921200AC6AAB6AB86A948C45
:10451000948E93809382120000018B6B8C6B8D6B59
:104520008E6B8F6B906B916B926B0001A86BAB9451
:10453000AB9278C08DF021EF24F000019A519B0AD4
:1045400001E164D1010A01E15BD1030A01E153D128
:10455000010A01E14BD10F0A01E143D1010A01E156
:104560003BD1030A01E132D1010A01E129D1070A55
:1045700001E121D1010A01E119D1030A01E111D1BF
:10458000010A01E109D11A0A01E1FCD0030A01E1A3
:10459000EFD0010A01E1CFD00E0A01E199D0010A62
:1045A00001E196D0020A01E189D0010A01E17CD043
:1045B000070A42E0010A07E0020A03E000018389DA
:1045C0002BD156DF29D10001A6B10BD066EC13F038
:1045D000000906E00001A6819BC09FF00001A781B1
:1045E0002AD0A6B310D000019F5106E1ACA202D0A0
:1045F00000019A6B11D104D09EA802D00001A683BD
:104600000001A78118D066EC13F0000901E104D184
:104610009BC0ADFF000179A308D09BC0E6FF800ED0
:10462000E66E0CEC14F0E552E5520001A693000191
:104630009F07E0EC13F0F0D00001A6B10FD066ECBC
:1046400013F000090AE003D000018389E5D00001DE
:10465000A6819BC09FF0AB98AB9A25D0A6B30CD097
:1046600000019F5105E1AB9A00019A6BD5D003D0B0
:104670000001A683AB8A17D0ABBA15D0AECF9BF0A2
:10468000000179A108D09BC0E6FF810EE66E0CEC1C
:1046900014F0E552E55261EC14F00001A69300011C
:1046A0009F07E0EC13F0B8D003D000018389B4D0A9
:1046B00000018D95AB8800019A6BAED003D000014C
:1046C0008389AAD000018D85AB9800019A6BA4D094
:1046D00003D000018389A0D00001A6B107D0AC8A25
:1046E000AC86AD6AA6810001A78124D0A6B316D0FE
:1046F0009EA813D0870E00019A5D09E166EC13F0C5
:10470000000904E09BC0ADFF0001A68302D00001B8
:10471000A683E0EC13F00001A7810CD09EA80AD07C
:10472000ACB608D0ACA204D000019A6B0001A781FE
:10473000E0EC13F071D00001A6B10DD066EC13F0DF
:10474000000908E09BC0AFFFAFCF91F00001A68148
:104750000001A7810CD066EC13F0000908E09BC0B3
:10476000B0FFB0CF92F000019A6B0001A78154D046
:1047700003D00001838950D0B88800018D810001E9
:104780009A6B4AD003D00001838946D0B8980001C3
:104790008D9100019A6B40D081909A6B0001A781A6
:1047A0003BD081809A6B0001A78136D093909A6BA1
:1047B0000001A78131D093809A6B0001A7812CD092
:1047C00081B003D09A6B0001A78126D081A003D0CD
:1047D0009A6B0001A78120D081929A6B0001A7817A
:1047E0001BD081829A6B0001A78116D093929A6B9D
:1047F0000001A78111D093829A6B0001A7810CD090
:1048000081B203D09A6B0001A78106D081A203D0A8
:104810009A6B0001A78100D012009EAA11D0AECFE2
:104820009BF061EC14F0000179A108D09BC0E6FF79
:10483000810EE66E0CEC14F0E552E5520001A88101
:1048400012000001A8A103D0A891E0EC13F0000130
:104850008F9593B08F858F9793B28F878F9181B00B
:104860008F818F9381B28F830001A699ABA404D06E
:10487000A689AB9400018B81ABA205D00001A6896B
:10488000AB9200018B830001A6A90BD0000179A592
:1048900008D08BC0E6FF820EE66E0CEC14F0E552F9
:1048A000E5527F0E00018B1502E0838F8B8FAFCF17
:0848B00091F0B0CF92F012006C
:0848B8008CD804D864D8000E6E
:1048C00000D01200020E00016F5D06E0030E6F5D66
:1048D00003E00B0E6F5D56E178A102D0C78E01D0C8
:1048E000C79E78A302D0C78C01D0C79C020E6F5D13
:1048F00003E00B0E6F5D2DE1230EC66E93927CA13B
:104900001DD000018F8100017C51020B02E0828CDE
:1049100001D0829C7C5100018F93020B01E08F83B8
:1049200000017C51040B02E0948C01D0949C7C51DA
:1049300000018F95040B01E08F850AD078AF02D07B
:104940008B8C01D08B9C949C00018F918F938F95C1
:1049500003D0050EC66E9382000178A502D0C688EA
:1049600001D0C69878C08CF0949E9380030E7D157C
:104970000001916F7EC092F091C0CAFF92C0CBFF40
:10498000CA84C68A120000018B6B8C6B8D6B8E6B98
:104990008F6B906B916B926BC69EC69C030E000151
:1049A0007D150001916F7EC092F078C08CF00001FF
:1049B0007CA10DD07C5100018F91010B01E08F8112
:1049C00000017C5100018F95040B01E08F85F6EF0B
:1049D00024F0948E93809382948C92829286928417
:1049E000928AC66AC56AC76ACA9412000001A69F65
:1049F000C6AE04D0A68FC69E00018B81C6AC05D082
:104A00000001A68FC69C00018B830001A6AF0BD0CE
:104A1000000177A508D08BC0E6FF820EE66E0CEC95
:104A200014F0E552E5527F0E00018B1502E0838FF2
:104A30008B8F8D9180B28D818D9380B28D838D957A
:104A400080B48D858D9780BA8D878F938250400B6F
:104A500001E08F83120000019A51950A01E12AD1E9
:104A6000010A01E11AD1070A01E10FD1010A01E1AE
:104A700004D1030A01E1F9D0010A01E1EED01C0AD8
:104A800001E1D7D0070A01E1C0D0030A01E1B7D0A4
:104A90000F0A01E1AED0040A01E18CD07C0A28E0C3
:104AA000790A1DE0020A12E0010A07E00C0A01E09F
:104AB0000ED102DF00019A6B0DD10001A699000111
:104AC000A68B00019A690001A78104D10001A68983
:104AD0000001A69B00019A690001A781FBD000019B
:104AE000A6890001A68B00019A690001A781F2D076
:104AF0000001A6B113D066EC13F000090EE09BC0D4
:104B00009FF00001A6819E96000178B706D00001B3
:104B1000A6AB02D0949E01D0948E4BD00001A6B3D8
:104B200023D09E960001A6AB16D066EC13F00009C8
:104B300001E1D0D0CA94CC6A9BC0C9FFCA840001ED
:104B400077A308D09BC0E6FF800EE66E0CEC14F055
:104B5000E552E55204D0CA94CC6AC96ACA840001FD
:104B6000A683E0EC13F025D09EA6B4D00000C9CFF8
:104B70009BF09E960001A6A90FD0000177A108D056
:104B80009BC0E6FF810EE66E0CEC14F0E552E55298
:104B900061EC14F0E0EC13F000019F0700019F515D
:104BA00005E00001A6930001A78103D000019A6BE4
:104BB00091D090D00001A6B10BD066EC13F00009A3
:104BC00006E09BC092F00001A6810001A78110D0F1
:104BD00066EC13F000090CE0030E00019B150001C8
:104BE000916F91C0CAFF92C0CBFFCA8400019A6B3B
:104BF00071D0948E00019A6B0001A7816BD0949EB6
:104C000000019A6B0001A78165D000017CB10CD036
:104C1000000178AF02D08B8C01D08B9C949C00015A
:104C20009A6B0001A78104D000019A6B0001A78153
:104C300051D000017CB10CD0000178AF02D08B9C28
:104C400001D08B8C949C00019A6B0001A78104D049
:104C500000019A6B0001A7813DD000017CB1829CCC
:104C600000019A6B0001A78135D000017CB1828CD4
:104C700000019A6B0001A7812DD000017CB1949CAA
:104C800000019A6B0001A78125D000017CB1948CB2
:104C900000019A6B0001A7811DD08250400B05E0F6
:104CA000000100017C51010B04E100019A6B00013D
:104CB000A78110D08250400B05E1000100017C511A
:104CC000010B04E100019A6B0001A78103D00001F0
:064CD000838900D01200F0
:0A4CD6006DEF26F06D6A696A0001B7
:104CE000D46B12006D966F886F84160E706E1E0E58
:104CF000716E0FD86D860001010ED46F1200689698
:104D00006896689668966E6A0001D66BD46B89EFD8
:104D100026F00401800E006F400E016F000E026F3E
:104D2000050E036F046B400E056F400E066F050EF7
:104D3000076F800E086F400E096F800E0A6F050E18
:104D40000B6F400E0C6F0D6FC00E0E6F050E0F6FC8
:104D50001200685001E133D06850400B04E0695004
:104D6000400B01E0689C6850100B04E06950100B88
:104D700001E068986850040B04E06950040B01E0FE
:104D800068946850020B04E06950020B01E06892DD
:104D90006850200B04E06950200B01E0689A6850CD
:104DA000010B04E06950010B01E068906850080BAA
:104DB00004E06950080B01E068966A5000E01200B8
:104DC00068BC689C68B8689868B4689468B268926F
:104DD00068BA689A68A002D092DF689068A602D08C
:104DE00005D868966A5000E037EF3FF06C500DE14F
:104DF000040100513C0BE842E8420D0803E16D98C4
:104E00001FD801D007D84CD904D0040E6C5C01E146
:104E100002D812001200040105510AE10001D6A1D6
:104E200005D0D691D5C06EFF050ED46FD69707D0AA
:104E30000001D651080B03E0DE5101E0ECD812006E
:104E40007F0E0501001502E10FD80DD07F0E001571
:104E5000010802E138D807D07F0E0015210802E1D1
:104E60003BD801D00DD9120005010151010A28E0FB
:104E7000020A26E0090A24E0010A22E0070A20E0EB
:104E80000C0A1EE0070A1CE00F0A1AE0010A10E0F3
:104E90000F0A0CE0030A01E013D002C5D5F00001AF
:104EA000D681F0D80001040ED46F0CD036D80AD0C9
:104EB00002C5D7F0E7D80001060ED46FD68502D020
:104EC000DFD800D0120005010151060A02E0D8D84F
:104ED00002D05CD800D0120005010151010A06E0A1
:104EE0000B0A02E0CDD804D0CDD802D002D800D031
:104EF00012000501035107E0010A05E0030A03E07F
:104F0000010A01E000D00401020E056F0501010E47
:104F1000406F020E416F00D0120005010351040AD8
:104F200032E0010A30E0030A2EE0010A2CE0040A14
:104F300028E0210A1BE0200A0EE0030A01E023D04A
:104F40000001120EDE6F8B0ED86F530ED96F000E5C
:104F5000DA6F5AD81AD00001290EDE6F9D0ED86F75
:104F6000530ED96F000EDA6F4FD80FD000011D0E0F
:104F7000DE6F6E0ED86F530ED96F000EDA6F44D805
:104F800004D016D802D07CD800D0120005010351FD
:104F9000220A02E075D80BD000011D0EDE6F6E0EE6
:104FA000D86F530ED96F000EDA6F2ED800D01200D2
:104FB00005010251020A1CE0030A0FE0010A02E0A7
:104FC0005FD821D00001C60ED86F530ED96F000EE6
:104FD000DA6F040EDE6F18D816D00001CA0ED86F33
:104FE000530ED96F000EDA6F340EDE6F0DD80BD072
:104FF0000001FE0ED86F530ED96F000EDA6F2E0E21
:10500000DE6F02D800D012000001D6870401080E1E
:10501000046F0BEF28F0050106510001D880DE5522
:1050200002E206C5DEF0DEC0DFF0DF51400802E23A
:10503000400EDF6FDF51DE5FDFC005F4400EDB6F37
:10504000050EDC6FDF51DF07000918E0D8C0F6FF5E
:10505000D82BD9C0F7FF000ED923DAC0F8FFDA2326
:105060000800F550E66EDBC0E9FFDCC0EAFFDB2B91
:10507000000EDC23E552E750EF6EE4D748EF28F04E
:10508000708012000401056B080E046F48EF28F0D1
:10509000400E04010415400A80090809046F12003B
:0E50A0006D980401400E016F800E006F12002B
:0250AE009490DC
:1050B0009398E66A05D8E552E66A1ED8E5521200D2
:1050C000D9CFE6FFDACFE6FFE1CFD9FFE2CFDAFFB3
:1050D000FD0EDBCFF0F0DBCFF1F0C00E0001F015DC
:1050E00005E1F0AB02D08B8001D08B90E552E5CF8B
:1050F000DAFFE7CFD9FF1200D9CFE6FFDACFE6FF1C
:10510000E1CFD9FFE2CFDAFFFD0EDBCFF2F0DBCF4C
:10511000F3F0C00E0001F21505E1F2AB02D08A886F
:1051200001D08A98E552E5CFDAFFE7CFD9FF120028
:105130000001BC5101E035D07A0EBC6F0001F1AF27
:1051400017D01F0EF11502E0F1070DD0200EF11758
:10515000F17BDF0EF015F113F1ADF19FF1AB02D051
:105160008B8001D08B90F1AB02D08B8001D08B90E3
:10517000F3AF17D01F0EF31502E0F3070DD0200E8A
:10518000F317F37BDF0EF215F313F3ADF39FF3ABDD
:1051900002D08A8801D08A98F3AB02D08A8801D0E5
:0451A0008A981200D7
:0C51A400D56AF29AF194F294F28AC20EDD
:1051B000D56E0001F70ECF6FD16BD26BD36BD06B76
:1051C0001200F2A44BD0F2940001D22BD25104E190
:1051D000D32BD35101E1D081C651C71103E0C607DB
:1051E000000EC75BC851C91103E0C807000EC95BB8
:1051F000CA51CB1103E0CA07000ECB5BCC51CD11D5
:1052000003E0CC07000ECD5BBA5101E0BA07BB51F9
:1052100001E0BB07BC5101E0BC07BD5101E0BD0787
:10522000BE5101E0BE07CE2B19E1BF5101E0BF071F
:10523000C05101E0C007C15101E0C107C25101E006
:10524000C207C35101E0C307CF2B08E1F70ECF6FB0
:10525000C45101E0C407C55101E0C5071200F29A2C
:10526000D6CFD1F0F2A402D00001D1690001D0A1C3
:1052700002D0D083D091F28A1200F29A0001D26B50
:0A528000D36BD091D093F28A120094
:06528A006AD892800F0EAD
:10529000C1140F0802E10E0EC16E94940701006B59
:1052A000016B1200D9CFE6FFDACFE6FFE1CFD9FFDD
:1052B000E2CFDAFF3D0EC06E030EC26EC2B2FED761
:1052C000070100A50ED0FD0EDB50C45C09E2030E01
:1052D000015D02E2012B03D013D80701008301D046
:1052E000016BC45000D0E552E5CFDAFFE7CFD9FF1C
:1052F000120036D8070100B302D082840085120064
:105300002FD88294070100951200D9CFE6FFDACF9B
:10531000E6FFE1CFD9FFE2CFDAFF070100B31AD0F1
:1053200000B107D0730ECB6E040ECA6E0C0EBD6EAC
:105330000081FD0EDB40E8403F0BBE6EFD0EDBA2A0
:1053400002D0BD8A01D0BD9ADBA002D0BD8801D0B9
:10535000BD980085E552E5CFDAFFE7CFD9FF12000F
:0E536000070100A103D0CA6ABD6A00911200C5
:02536E00060037
:10537000FF0901A10119012940150026FF00750848
:1053800095408102190129409102C01201010100DA
:10539000000040D804360000010102000109022982
:1053A000000101008032090400000203000000092E
:1053B0002101000001221D00070501034000010733
:1053C0000581034000010403090434034D00690012
:1053D000630072006F0063006800690070002000C5
:1053E00054006500630068006E006F006C006F0081
:1053F00067007900200049006E0063002E002E0334
:105400005000490043006B00690074002000530005
:1054100065007200690061006C00200041006E00B0
:0C54200061006C0079007A0065007200E9
:04542C00000EF66E0A
:105430007D0EF76E000EF86E00010900F550E56F65
:105440000900F550E66F03E1E56701D03DD00900A2
:10545000F550E06F0900F550E16F0900F550E26F7B
:1054600009000900F550E96E0900F550EA6E0900DF
:1054700009000900F550E36F0900F550E46F0900D9
:105480000900F6CFE7F0F7CFE8F0F8CFE9F0E0C099
:10549000F6FFE1C0F7FFE2C0F8FF0001E35302E1CD
:1054A000E45307E00900F550EE6EE307F8E2E40785
:1054B000F9D7E7C0F6FFE8C0F7FFE9C0F8FF000141
:0A54C000E507000EE65BBFD71200FF
:0654CA00B00EB16E1200ED
:1054D000D9CFE6FFDACFE6FFE1CFD9FFE2CFDAFF9F
:1054E000E652E652FC0EDBCFDEFFDBCFDDFFB00E77
:1054F000B16E08680968DECF0DF0DDCF0EF07CECF0
:105500002BF006C0DEFF07C0DDFF010EDB50B36EDF
:10551000DF50B26EA192B180E552E552E552E5CF7F
:10552000DAFFE7CFD9FF1200D9CFE6FFDACFE6FFE7
:10553000E1CFD9FFE2CFDAFFFC0EDBCFE6FFFD0EB5
:10554000DBCFE6FFC5DFE552E552A1A2FED7E5526B
:0A555000E5CFDAFFE7CFD9FF120024
:06555A000001F46BF56B8B
:10556000F66BF76912000001F6510CE0F52BF551CE
:10557000146E156AFF0E141801E1155001E1F56B68
:10558000F607F72BF551EA6A000FE96E010EEA22E1
:10559000EF5000D01200D9CFE6FFDACFE6FFE1CF1F
:1055A000D9FFE2CFDAFF0001F75115E0F42BF451F7
:1055B000146E156AFF0E141801E1155001E1F46B29
:1055C000F451EA6A000FE96E010EEA22FD0EDBCF0C
:1055D000EFFFF62BF70700D0E552E5CFDAFFE7CF74
:0455E000D9FF1200DD
:0C55E4000001F86BF96BFA6BFB69120018
:1055F0000001FA510CE0F92BF951146E156AFF0EF7
:10560000141801E1155001E1F96BFA07FB2BF95170
:10561000EA6A000FE96E020EEA22EF5000D0120093
:10562000D9CFE6FFDACFE6FFE1CFD9FFE2CFDAFF4D
:105630000001FB5115E0F82BF851146E156AFF0EAE
:10564000141801E1155001E1F86BF851EA6A000FF6
:10565000E96E020EEA22FD0EDBCFEFFFFA2BFB070D
:0E56600000D0E552E5CFDAFFE7CFD9FF120008
:02566E00000139
:10567000FC6BFD6BFE6BFF6912000001FE510CE03C
:10568000FD2BFD51146E156AFF0E141801E1155023
:1056900001E1FD6BFE07FF2BFD51EA6A000FE96E89
:1056A000060EEA22EF5000D01200D9CFE6FFDACF83
:1056B000E6FFE1CFD9FFE2CFDAFF0001FF5115E0AD
:1056C000FC2BFC51146E156AFF0E141801E11550E5
:1056D00001E1FC6BFC51EA6A000FE96E060EEA225A
:1056E000FD0EDBCFEFFFFE2BFF0700D0E552E5CF2D
:0856F000DAFFE7CFD9FF120039
:0856F80008C012F008500D0279
:10570000F4CF07F0F3CF06F009500E02F4CF09F002
:10571000F3CF08F00D02F3500726F4500822E86A90
:10572000092212500E02F3500726F4500822E86AAC
:045730000922000C3E
:0C573400C0000001FF00000000000000A9
:0C5740000000000000000000000000005D
:04574C0000EE00F07B
:0A5750000F0EEE6AEA62FDD71200A8
:027CFE005555DA
:027D0000000081
:0E7D0200D9CFE6FFDACFE6FFE1CFD9FFE2CF1F
:107D1000DAFF060EE12402E3E168E652E16E0000BC
:107D200072EC26F057EC28F0D2EC28F01CEC19F09D
:107D30000000000000000000D08EF28EF28CE0EC1B
:107D400026F098EC28F03CEC19F0E5EC10F000017E
:107D5000609DF5D7060EE15C02E2E16AE552E16E54
:107D6000E552E5CFDAFFE7CFD9FF1200E652E55240
:107D70001100D8CFE4FFE0CFE4FFE46EE9CFE4FFE9
:107D8000EACFE4FFF6CFE4FFF7CFE4FFF8CFE4FF5C
:107D9000F5CFE4FFF3CFE4FFF4CFE4FFFACFE4FF45
:107DA000FBCFE4FF00EE00F0140EE80403E3EECF97
:107DB000E4FFFBD700EE14F0060EE80403E3EECF79
:107DC000E4FFFBD7E6529D50080B06E09E50080BDF
:107DD00003E0000033EC1DF0E1EC28F09D50200B97
:107DE0000FE09E50200B0CE00A0E0001855D02E1C1
:107DF000CCEC16F0040E0001855D02E10DEC24F0E0
:107E00009D50100B09E09E50100B06E00A0E000179
:107E1000855D02E164EC18F0E55200EE19F0060E03
:107E2000E80403E3E5CFEDFFFBD700EE13F0140EFB
:107E3000E80403E3E5CFEDFFFBD7E5CFFBFFE5CF9C
:107E4000FAFFE5CFF4FFE5CFF3FFE5CFF5FFE5CF90
:107E5000F8FFE5CFF7FFE5CFF6FFE5CFEAFFE5CF87
:0E7E6000E9FFE550E5CFE0FFE5CFD8FF1000C9
:027E6E00000111
:107E7000D6A511D0040108510001800B02E0D69D67
:107E800001D0D68D04010C510001800B02E0D69F79
:107E900001D0D68F02D0D69DD69F1200400E04018D
:107EA0000C15400A80090C6F37EF3FF0400E0401BB
:107EB0000815400A8009086F37EF3FF0D9CFE6FF79
:107EC000DACFE6FFE1CFD9FFE2CFDAFF0001800E83
:107ED000D86F050ED96F400EDE6FDE51DE07000948
:107EE00016E0D8C0E9FFD9C0EAFFD82B000ED9238D
:107EF000EF50E66EFC0EDBCFE9FFDB2AFD0EDBCF99
:107F0000EAFF01E3DB2AE552E750EF6EE6D7CEDF6A
:107F1000E552E5CFDAFFE7CFD9FF1200D9CFE6FF70
:107F2000DACFE6FFE1CFD9FFE2CFDAFF0001C00EE2
:107F3000DB6F050EDC6F400EDE6FDE51DE070009E1
:107F400016E0FC0EDBCFE9FFDB2AFD0EDBCFEAFFFC
:107F500001E3DB2AEF50E66EDBC0E9FFDCC0EAFF9D
:107F6000DB2B000EDC23E552E750EF6EE6D796DF01
:0C7F7000E552E5CFDAFFE7CFD9FF1200A1
:047F7C000001EC29EB
:107F80000001ED6F06D8EAC0EBF0ECC0EDF0C9EFF0
:107F90003FF0EDC0A9FFA66AA680A8CFEAF0A850DE
:107FA00000D01200A66AF29EF2BEFDD7A684550E3E
:107FB000A76EAA0EA76EA682F28EA6B2FED7A694D0
:107FC000A92A1200EEC0A9FFEFC0A8FFD2EF3FF030
:107FD00013EE00F023EE00F0F86A019C16EC2AF094
:0C7FE000FDEC3FF081EC3EF0FBD71200FE
:047FEC00896A8A6AAA
:0A7FF0008B6A926A936A946A120089
:027FFA00120073
:020000040030CA
:0100000024DB
:010001000CF2
:010002003FBE
:010003001EDE
:0100050000FA
:010006008178
:010008000FE8
:01000900C036
:01000A000FE6
:01000B00E014
:01000C000FE4
:01000D0040B2
:00000001FF
